{"abi":[{"type":"function","name":"db","inputs":[{"name":"","type":"uint16","internalType":"uint16"}],"outputs":[{"name":"land","type":"uint8","internalType":"uint8"},{"name":"price","type":"uint16","internalType":"uint16"},{"name":"reward","type":"uint16","internalType":"uint16"},{"name":"fee","type":"uint16","internalType":"uint16"}],"stateMutability":"view"},{"type":"function","name":"get","inputs":[{"name":"pos","type":"uint16","internalType":"uint16"}],"outputs":[{"name":"","type":"tuple","internalType":"struct Mapdata","components":[{"name":"land","type":"uint8","internalType":"uint8"},{"name":"price","type":"uint16","internalType":"uint16"},{"name":"reward","type":"uint16","internalType":"uint16"},{"name":"fee","type":"uint16","internalType":"uint16"}]}],"stateMutability":"view"},{"type":"function","name":"owner","inputs":[],"outputs":[{"name":"","type":"address","internalType":"address"}],"stateMutability":"view"},{"type":"function","name":"renounceOwnership","inputs":[],"outputs":[],"stateMutability":"nonpayable"},{"type":"function","name":"set","inputs":[{"name":"pos","type":"uint16","internalType":"uint16"},{"name":"data","type":"tuple","internalType":"struct Mapdata","components":[{"name":"land","type":"uint8","internalType":"uint8"},{"name":"price","type":"uint16","internalType":"uint16"},{"name":"reward","type":"uint16","internalType":"uint16"},{"name":"fee","type":"uint16","internalType":"uint16"}]}],"outputs":[],"stateMutability":"nonpayable"},{"type":"function","name":"setMany","inputs":[{"name":"pos","type":"uint16[]","internalType":"uint16[]"},{"name":"data","type":"tuple[]","internalType":"struct Mapdata[]","components":[{"name":"land","type":"uint8","internalType":"uint8"},{"name":"price","type":"uint16","internalType":"uint16"},{"name":"reward","type":"uint16","internalType":"uint16"},{"name":"fee","type":"uint16","internalType":"uint16"}]}],"outputs":[],"stateMutability":"nonpayable"},{"type":"function","name":"transferOwnership","inputs":[{"name":"newOwner","type":"address","internalType":"address"}],"outputs":[],"stateMutability":"nonpayable"},{"type":"event","name":"OwnershipTransferred","inputs":[{"name":"previousOwner","type":"address","indexed":true,"internalType":"address"},{"name":"newOwner","type":"address","indexed":true,"internalType":"address"}],"anonymous":false},{"type":"error","name":"InvaildLength","inputs":[]},{"type":"error","name":"OwnableInvalidOwner","inputs":[{"name":"owner","type":"address","internalType":"address"}]},{"type":"error","name":"OwnableUnauthorizedAccount","inputs":[{"name":"account","type":"address","internalType":"address"}]}],"bytecode":{"object":"0x608060405234801561001057600080fd5b50338061003757604051631e4fbdf760e01b81526000600482015260240160405180910390fd5b61004081610046565b50610096565b600080546001600160a01b038381166001600160a01b0319831681178455604051919092169283917f8be0079c531659141344cd1fd0a4f28419497f9722a3daafe3b4186f6b6457e09190a35050565b610909806100a56000396000f3fe608060405234801561001057600080fd5b506004361061007d5760003560e01c8063715018a61161005b578063715018a6146101225780638da5cb5b1461012a578063b3fd15a014610152578063f2fde38b1461021b57600080fd5b80630146073b14610082578063450dc9a3146100fa5780634fc13e6b1461010f575b600080fd5b6100c76100903660046105b6565b60016020526000908152604090205460ff81169061ffff610100820481169163010000008104821691650100000000009091041684565b6040805160ff909516855261ffff9384166020860152918316918401919091521660608201526080015b60405180910390f35b61010d61010836600461077a565b61022e565b005b61010d61011d36600461083a565b61038c565b61010d61045a565b60005460405173ffffffffffffffffffffffffffffffffffffffff90911681526020016100f1565b6101d96101603660046105b6565b604080516080808201835260008083526020808401829052838501829052606093840182905261ffff95861682526001815290849020845192830185525460ff81168352610100810486169183019190915263010000008104851693820193909352650100000000009092049092169181019190915290565b6040516100f19190815160ff16815260208083015161ffff90811691830191909152604080840151821690830152606092830151169181019190915260800190565b61010d61022936600461086e565b61046e565b6102366104d7565b8051825114610271576040517f8ec2f49c00000000000000000000000000000000000000000000000000000000815260040160405180910390fd5b60005b82518110156103875781818151811061028f5761028f6108a4565b6020026020010151600160008584815181106102ad576102ad6108a4565b60209081029190910181015161ffff9081168352828201939093526040918201600020845181549286015193860151606090960151851665010000000000027fffffffffffffffffffffffffffffffffffffffffffffffffff0000ffffffffff968616630100000002969096167fffffffffffffffffffffffffffffffffffffffffffffffffff00000000ffffff94909516610100027fffffffffffffffffffffffffffffffffffffffffffffffffffffffffff00000090931660ff90911617919091179190911691909117919091179055600101610274565b505050565b6103946104d7565b61ffff918216600090815260016020908152604091829020835181549285015193850151606090950151861665010000000000027fffffffffffffffffffffffffffffffffffffffffffffffffff0000ffffffffff958716630100000002959095167fffffffffffffffffffffffffffffffffffffffffffffffffff00000000ffffff94909616610100027fffffffffffffffffffffffffffffffffffffffffffffffffffffffffff00000090931660ff90911617919091179190911692909217179055565b6104626104d7565b61046c600061052a565b565b6104766104d7565b73ffffffffffffffffffffffffffffffffffffffff81166104cb576040517f1e4fbdf7000000000000000000000000000000000000000000000000000000008152600060048201526024015b60405180910390fd5b6104d48161052a565b50565b60005473ffffffffffffffffffffffffffffffffffffffff16331461046c576040517f118cdaa70000000000000000000000000000000000000000000000000000000081523360048201526024016104c2565b6000805473ffffffffffffffffffffffffffffffffffffffff8381167fffffffffffffffffffffffff0000000000000000000000000000000000000000831681178455604051919092169283917f8be0079c531659141344cd1fd0a4f28419497f9722a3daafe3b4186f6b6457e09190a35050565b803561ffff811681146105b157600080fd5b919050565b6000602082840312156105c857600080fd5b6105d18261059f565b9392505050565b7f4e487b7100000000000000000000000000000000000000000000000000000000600052604160045260246000fd5b604051601f82017fffffffffffffffffffffffffffffffffffffffffffffffffffffffffffffffe016810167ffffffffffffffff8111828210171561064e5761064e6105d8565b604052919050565b600067ffffffffffffffff821115610670576106706105d8565b5060051b60200190565b60006080828403121561068c57600080fd5b6040516080810181811067ffffffffffffffff821117156106af576106af6105d8565b604052905080823560ff811681146106c657600080fd5b81526106d46020840161059f565b60208201526106e56040840161059f565b60408201526106f66060840161059f565b60608201525092915050565b600082601f83011261071357600080fd5b8135602061072861072383610656565b610607565b8083825260208201915060208460071b87010193508684111561074a57600080fd5b602086015b8481101561076f57610761888261067a565b83529183019160800161074f565b509695505050505050565b6000806040838503121561078d57600080fd5b823567ffffffffffffffff808211156107a557600080fd5b818501915085601f8301126107b957600080fd5b813560206107c961072383610656565b82815260059290921b840181019181810190898411156107e857600080fd5b948201945b8386101561080d576107fe8661059f565b825294820194908201906107ed565b9650508601359250508082111561082357600080fd5b5061083085828601610702565b9150509250929050565b60008060a0838503121561084d57600080fd5b6108568361059f565b9150610865846020850161067a565b90509250929050565b60006020828403121561088057600080fd5b813573ffffffffffffffffffffffffffffffffffffffff811681146105d157600080fd5b7f4e487b7100000000000000000000000000000000000000000000000000000000600052603260045260246000fdfea2646970667358221220637238c37a3bf22bcc0af9f9ab433574f5643e59a9877d50242564879579211c64736f6c63430008160033","linkReferences":{}},"methodIdentifiers":{"db(uint16)":"0146073b","get(uint16)":"b3fd15a0","owner()":"8da5cb5b","renounceOwnership()":"715018a6","set(uint16,(uint8,uint16,uint16,uint16))":"4fc13e6b","setMany(uint16[],(uint8,uint16,uint16,uint16)[])":"450dc9a3","transferOwnership(address)":"f2fde38b"},"id":62}