{"abi":[{"type":"constructor","inputs":[],"stateMutability":"nonpayable"},{"type":"function","name":"DEFAULT_ADMIN_ROLE","inputs":[],"outputs":[{"name":"","type":"bytes32","internalType":"bytes32"}],"stateMutability":"view"},{"type":"function","name":"MINTER_ROLE","inputs":[],"outputs":[{"name":"","type":"bytes32","internalType":"bytes32"}],"stateMutability":"view"},{"type":"function","name":"addMinter","inputs":[{"name":"account","type":"address","internalType":"address"}],"outputs":[],"stateMutability":"nonpayable"},{"type":"function","name":"approve","inputs":[{"name":"to","type":"address","internalType":"address"},{"name":"tokenId","type":"uint256","internalType":"uint256"}],"outputs":[],"stateMutability":"nonpayable"},{"type":"function","name":"balanceOf","inputs":[{"name":"owner","type":"address","internalType":"address"}],"outputs":[{"name":"","type":"uint256","internalType":"uint256"}],"stateMutability":"view"},{"type":"function","name":"db","inputs":[{"name":"","type":"uint256","internalType":"uint256"}],"outputs":[{"name":"blocknum","type":"uint160","internalType":"uint160"},{"name":"level","type":"uint16","internalType":"uint16"},{"name":"score","type":"uint16","internalType":"uint16"}],"stateMutability":"view"},{"type":"function","name":"getApproved","inputs":[{"name":"tokenId","type":"uint256","internalType":"uint256"}],"outputs":[{"name":"","type":"address","internalType":"address"}],"stateMutability":"view"},{"type":"function","name":"getRoleAdmin","inputs":[{"name":"role","type":"bytes32","internalType":"bytes32"}],"outputs":[{"name":"","type":"bytes32","internalType":"bytes32"}],"stateMutability":"view"},{"type":"function","name":"grantRole","inputs":[{"name":"role","type":"bytes32","internalType":"bytes32"},{"name":"account","type":"address","internalType":"address"}],"outputs":[],"stateMutability":"nonpayable"},{"type":"function","name":"hasRole","inputs":[{"name":"role","type":"bytes32","internalType":"bytes32"},{"name":"account","type":"address","internalType":"address"}],"outputs":[{"name":"","type":"bool","internalType":"bool"}],"stateMutability":"view"},{"type":"function","name":"isApprovedForAll","inputs":[{"name":"owner","type":"address","internalType":"address"},{"name":"operator","type":"address","internalType":"address"}],"outputs":[{"name":"","type":"bool","internalType":"bool"}],"stateMutability":"view"},{"type":"function","name":"isMinter","inputs":[{"name":"account","type":"address","internalType":"address"}],"outputs":[{"name":"","type":"bool","internalType":"bool"}],"stateMutability":"view"},{"type":"function","name":"lastId","inputs":[],"outputs":[{"name":"","type":"uint256","internalType":"uint256"}],"stateMutability":"view"},{"type":"function","name":"metadata","inputs":[{"name":"tokenId","type":"uint256","internalType":"uint256"}],"outputs":[{"name":"","type":"tuple","internalType":"struct Metadata","components":[{"name":"blocknum","type":"uint160","internalType":"uint160"},{"name":"level","type":"uint16","internalType":"uint16"},{"name":"score","type":"uint16","internalType":"uint16"}]}],"stateMutability":"view"},{"type":"function","name":"mint","inputs":[{"name":"to","type":"address","internalType":"address"},{"name":"data","type":"tuple","internalType":"struct Metadata","components":[{"name":"blocknum","type":"uint160","internalType":"uint160"},{"name":"level","type":"uint16","internalType":"uint16"},{"name":"score","type":"uint16","internalType":"uint16"}]}],"outputs":[],"stateMutability":"nonpayable"},{"type":"function","name":"name","inputs":[],"outputs":[{"name":"","type":"string","internalType":"string"}],"stateMutability":"view"},{"type":"function","name":"owner","inputs":[],"outputs":[{"name":"","type":"address","internalType":"address"}],"stateMutability":"view"},{"type":"function","name":"ownerOf","inputs":[{"name":"tokenId","type":"uint256","internalType":"uint256"}],"outputs":[{"name":"","type":"address","internalType":"address"}],"stateMutability":"view"},{"type":"function","name":"removeMinter","inputs":[{"name":"account","type":"address","internalType":"address"}],"outputs":[],"stateMutability":"nonpayable"},{"type":"function","name":"renounceOwnership","inputs":[],"outputs":[],"stateMutability":"nonpayable"},{"type":"function","name":"renounceRole","inputs":[{"name":"role","type":"bytes32","internalType":"bytes32"},{"name":"callerConfirmation","type":"address","internalType":"address"}],"outputs":[],"stateMutability":"nonpayable"},{"type":"function","name":"revokeRole","inputs":[{"name":"role","type":"bytes32","internalType":"bytes32"},{"name":"account","type":"address","internalType":"address"}],"outputs":[],"stateMutability":"nonpayable"},{"type":"function","name":"safeTransferFrom","inputs":[{"name":"from","type":"address","internalType":"address"},{"name":"to","type":"address","internalType":"address"},{"name":"tokenId","type":"uint256","internalType":"uint256"}],"outputs":[],"stateMutability":"nonpayable"},{"type":"function","name":"safeTransferFrom","inputs":[{"name":"from","type":"address","internalType":"address"},{"name":"to","type":"address","internalType":"address"},{"name":"tokenId","type":"uint256","internalType":"uint256"},{"name":"data","type":"bytes","internalType":"bytes"}],"outputs":[],"stateMutability":"nonpayable"},{"type":"function","name":"setApprovalForAll","inputs":[{"name":"operator","type":"address","internalType":"address"},{"name":"approved","type":"bool","internalType":"bool"}],"outputs":[],"stateMutability":"nonpayable"},{"type":"function","name":"setBaseURI","inputs":[{"name":"_uri","type":"string","internalType":"string"}],"outputs":[],"stateMutability":"nonpayable"},{"type":"function","name":"setMetadata","inputs":[{"name":"tokenId","type":"uint256","internalType":"uint256"},{"name":"data","type":"tuple","internalType":"struct Metadata","components":[{"name":"blocknum","type":"uint160","internalType":"uint160"},{"name":"level","type":"uint16","internalType":"uint16"},{"name":"score","type":"uint16","internalType":"uint16"}]}],"outputs":[],"stateMutability":"nonpayable"},{"type":"function","name":"supportsInterface","inputs":[{"name":"interfaceId","type":"bytes4","internalType":"bytes4"}],"outputs":[{"name":"","type":"bool","internalType":"bool"}],"stateMutability":"view"},{"type":"function","name":"symbol","inputs":[],"outputs":[{"name":"","type":"string","internalType":"string"}],"stateMutability":"view"},{"type":"function","name":"tokenByIndex","inputs":[{"name":"index","type":"uint256","internalType":"uint256"}],"outputs":[{"name":"","type":"uint256","internalType":"uint256"}],"stateMutability":"view"},{"type":"function","name":"tokenOfOwnerByIndex","inputs":[{"name":"owner","type":"address","internalType":"address"},{"name":"index","type":"uint256","internalType":"uint256"}],"outputs":[{"name":"","type":"uint256","internalType":"uint256"}],"stateMutability":"view"},{"type":"function","name":"tokenURI","inputs":[{"name":"tokenId","type":"uint256","internalType":"uint256"}],"outputs":[{"name":"","type":"string","internalType":"string"}],"stateMutability":"view"},{"type":"function","name":"totalSupply","inputs":[],"outputs":[{"name":"","type":"uint256","internalType":"uint256"}],"stateMutability":"view"},{"type":"function","name":"transferFrom","inputs":[{"name":"from","type":"address","internalType":"address"},{"name":"to","type":"address","internalType":"address"},{"name":"tokenId","type":"uint256","internalType":"uint256"}],"outputs":[],"stateMutability":"nonpayable"},{"type":"function","name":"transferOwnership","inputs":[{"name":"newOwner","type":"address","internalType":"address"}],"outputs":[],"stateMutability":"nonpayable"},{"type":"event","name":"Approval","inputs":[{"name":"owner","type":"address","indexed":true,"internalType":"address"},{"name":"approved","type":"address","indexed":true,"internalType":"address"},{"name":"tokenId","type":"uint256","indexed":true,"internalType":"uint256"}],"anonymous":false},{"type":"event","name":"ApprovalForAll","inputs":[{"name":"owner","type":"address","indexed":true,"internalType":"address"},{"name":"operator","type":"address","indexed":true,"internalType":"address"},{"name":"approved","type":"bool","indexed":false,"internalType":"bool"}],"anonymous":false},{"type":"event","name":"OwnershipTransferred","inputs":[{"name":"previousOwner","type":"address","indexed":true,"internalType":"address"},{"name":"newOwner","type":"address","indexed":true,"internalType":"address"}],"anonymous":false},{"type":"event","name":"RoleAdminChanged","inputs":[{"name":"role","type":"bytes32","indexed":true,"internalType":"bytes32"},{"name":"previousAdminRole","type":"bytes32","indexed":true,"internalType":"bytes32"},{"name":"newAdminRole","type":"bytes32","indexed":true,"internalType":"bytes32"}],"anonymous":false},{"type":"event","name":"RoleGranted","inputs":[{"name":"role","type":"bytes32","indexed":true,"internalType":"bytes32"},{"name":"account","type":"address","indexed":true,"internalType":"address"},{"name":"sender","type":"address","indexed":true,"internalType":"address"}],"anonymous":false},{"type":"event","name":"RoleRevoked","inputs":[{"name":"role","type":"bytes32","indexed":true,"internalType":"bytes32"},{"name":"account","type":"address","indexed":true,"internalType":"address"},{"name":"sender","type":"address","indexed":true,"internalType":"address"}],"anonymous":false},{"type":"event","name":"Transfer","inputs":[{"name":"from","type":"address","indexed":true,"internalType":"address"},{"name":"to","type":"address","indexed":true,"internalType":"address"},{"name":"tokenId","type":"uint256","indexed":true,"internalType":"uint256"}],"anonymous":false},{"type":"error","name":"AccessControlBadConfirmation","inputs":[]},{"type":"error","name":"AccessControlUnauthorizedAccount","inputs":[{"name":"account","type":"address","internalType":"address"},{"name":"neededRole","type":"bytes32","internalType":"bytes32"}]},{"type":"error","name":"ERC721EnumerableForbiddenBatchMint","inputs":[]},{"type":"error","name":"ERC721IncorrectOwner","inputs":[{"name":"sender","type":"address","internalType":"address"},{"name":"tokenId","type":"uint256","internalType":"uint256"},{"name":"owner","type":"address","internalType":"address"}]},{"type":"error","name":"ERC721InsufficientApproval","inputs":[{"name":"operator","type":"address","internalType":"address"},{"name":"tokenId","type":"uint256","internalType":"uint256"}]},{"type":"error","name":"ERC721InvalidApprover","inputs":[{"name":"approver","type":"address","internalType":"address"}]},{"type":"error","name":"ERC721InvalidOperator","inputs":[{"name":"operator","type":"address","internalType":"address"}]},{"type":"error","name":"ERC721InvalidOwner","inputs":[{"name":"owner","type":"address","internalType":"address"}]},{"type":"error","name":"ERC721InvalidReceiver","inputs":[{"name":"receiver","type":"address","internalType":"address"}]},{"type":"error","name":"ERC721InvalidSender","inputs":[{"name":"sender","type":"address","internalType":"address"}]},{"type":"error","name":"ERC721NonexistentToken","inputs":[{"name":"tokenId","type":"uint256","internalType":"uint256"}]},{"type":"error","name":"ERC721OutOfBoundsIndex","inputs":[{"name":"owner","type":"address","internalType":"address"},{"name":"index","type":"uint256","internalType":"uint256"}]},{"type":"error","name":"OwnableInvalidOwner","inputs":[{"name":"owner","type":"address","internalType":"address"}]},{"type":"error","name":"OwnableUnauthorizedAccount","inputs":[{"name":"account","type":"address","internalType":"address"}]},{"type":"error","name":"UnauthorizedMinter","inputs":[{"name":"minter","type":"address","internalType":"address"}]}],"bytecode":{"object":"0x60806040526000600e553480156200001657600080fd5b5060408051808201825260118152704d6f6e6f706c6f792050726f706572747960781b6020808301919091528251808401909352600383526204d4f560ec1b908301529033806200008157604051631e4fbdf760e01b81526000600482015260240160405180910390fd5b6200008c81620000e6565b5060016200009b838262000290565b506002620000aa828262000290565b505050620000df7ff0887ba65ee2024ea881d91b74c2450ef19e1557f03bed3ea9f16b037cbe2dc9336200013660201b60201c565b506200035c565b600080546001600160a01b038381166001600160a01b0319831681178455604051919092169283917f8be0079c531659141344cd1fd0a4f28419497f9722a3daafe3b4186f6b6457e09190a35050565b60008281526007602090815260408083206001600160a01b038516845290915281205460ff16620001df5760008381526007602090815260408083206001600160a01b03861684529091529020805460ff19166001179055620001963390565b6001600160a01b0316826001600160a01b0316847f2f8788117e7eff1d82e926ec794901d17c78024a50270940304540a733656f0d60405160405180910390a4506001620001e3565b5060005b92915050565b634e487b7160e01b600052604160045260246000fd5b600181811c908216806200021457607f821691505b6020821081036200023557634e487b7160e01b600052602260045260246000fd5b50919050565b601f8211156200028b576000816000526020600020601f850160051c81016020861015620002665750805b601f850160051c820191505b81811015620002875782815560010162000272565b5050505b505050565b81516001600160401b03811115620002ac57620002ac620001e9565b620002c481620002bd8454620001ff565b846200023b565b602080601f831160018114620002fc5760008415620002e35750858301515b600019600386901b1c1916600185901b17855562000287565b600085815260208120601f198616915b828110156200032d578886015182559484019460019091019084016200030c565b50858210156200034c5787850151600019600388901b60f8161c191681555b5050505050600190811b01905550565b6129d0806200036c6000396000f3fe608060405234801561001057600080fd5b50600436106102415760003560e01c80636352211e11610145578063aa271e1a116100bd578063d53913931161008c578063e3684e3911610071578063e3684e39146105af578063e985e9c514610691578063f2fde38b146106da57600080fd5b8063d539139314610575578063d547741f1461059c57600080fd5b8063aa271e1a14610533578063b88d4fde14610546578063c1292cc314610559578063c87b56dd1461056257600080fd5b806391d1485411610114578063983b2d56116100f9578063983b2d5614610505578063a217fddf14610518578063a22cb4651461052057600080fd5b806391d14854146104b757806395d89b41146104fd57600080fd5b80636352211e1461046b57806370a082311461047e578063715018a6146104915780638da5cb5b1461049957600080fd5b80632b551c40116101d857806336568abe116101a7578063466d1a7c1161018c578063466d1a7c146104325780634f6ccce71461044557806355f804b31461045857600080fd5b806336568abe1461040c57806342842e0e1461041f57600080fd5b80632b551c401461032b5780632f2ff15d146103d35780632f745c59146103e65780633092afd5146103f957600080fd5b80630c8fde06116102145780630c8fde06146102d057806318160ddd146102e357806323b872dd146102f5578063248a9ca31461030857600080fd5b806301ffc9a71461024657806306fdde031461026e578063081812fc14610283578063095ea7b3146102bb575b600080fd5b61025961025436600461220e565b6106ed565b60405190151581526020015b60405180910390f35b610276610749565b6040516102659190612299565b6102966102913660046122ac565b6107db565b60405173ffffffffffffffffffffffffffffffffffffffff9091168152602001610265565b6102ce6102c93660046122e7565b610811565b005b6102ce6102de3660046123ca565b610820565b600a545b604051908152602001610265565b6102ce610303366004612400565b610978565b6102e76103163660046122ac565b60009081526007602052604090206001015490565b61039c6103393660046122ac565b600d6020526000908152604090205473ffffffffffffffffffffffffffffffffffffffff81169061ffff74010000000000000000000000000000000000000000820481169176010000000000000000000000000000000000000000000090041683565b6040805173ffffffffffffffffffffffffffffffffffffffff909416845261ffff9283166020850152911690820152606001610265565b6102ce6103e1366004612441565b610a69565b6102e76103f43660046122e7565b610a8e565b6102ce610407366004612471565b610b26565b6102ce61041a366004612441565b610b5b565b6102ce61042d366004612400565b610bb9565b6102ce61044036600461248e565b610bd4565b6102e76104533660046122ac565b610d05565b6102ce610466366004612546565b610d77565b6102966104793660046122ac565b610d8b565b6102e761048c366004612471565b610db5565b6102ce610e30565b60005473ffffffffffffffffffffffffffffffffffffffff16610296565b6102596104c5366004612441565b600091825260076020908152604080842073ffffffffffffffffffffffffffffffffffffffff93909316845291905290205460ff1690565b610276610e44565b6102ce610513366004612471565b610e53565b6102e7600081565b6102ce61052e36600461258f565b610e85565b610259610541366004612471565b610e90565b6102ce6105543660046125c2565b610edd565b6102e7600e5481565b6102766105703660046122ac565b610ef4565b6102e77ff0887ba65ee2024ea881d91b74c2450ef19e1557f03bed3ea9f16b037cbe2dc981565b6102ce6105aa366004612441565b610f5c565b61064d6105bd3660046122ac565b604080516060808201835260008083526020808401829052928401819052938452600d825292829020825193840183525473ffffffffffffffffffffffffffffffffffffffff8116845261ffff7401000000000000000000000000000000000000000082048116928501929092527601000000000000000000000000000000000000000000009004169082015290565b60408051825173ffffffffffffffffffffffffffffffffffffffff16815260208084015161ffff908116918301919091529282015190921690820152606001610265565b61025961069f366004612642565b73ffffffffffffffffffffffffffffffffffffffff918216600090815260066020908152604080832093909416825291909152205460ff1690565b6102ce6106e8366004612471565b610f81565b60007fffffffff0000000000000000000000000000000000000000000000000000000082167fda8def73000000000000000000000000000000000000000000000000000000001480610743575061074382610fe2565b92915050565b60606001805461075890612670565b80601f016020809104026020016040519081016040528092919081815260200182805461078490612670565b80156107d15780601f106107a6576101008083540402835291602001916107d1565b820191906000526020600020905b8154815290600101906020018083116107b457829003601f168201915b5050505050905090565b60006107e682611038565b5060008281526005602052604090205473ffffffffffffffffffffffffffffffffffffffff16610743565b61081c828233611097565b5050565b3360009081527febbd3a24feebba8cdf2e98db12048a013e10be52e067a537274a363ad327f1df602052604090205460ff1661088f576040517fa4f396650000000000000000000000000000000000000000000000000000000081523360048201526024015b60405180910390fd5b600e805490600061089f836126f2565b91905055506108b082600e546110a4565b600e546000908152600d60209081526040918290208351815492850151949093015173ffffffffffffffffffffffffffffffffffffffff9093167fffffffffffffffffffff00000000000000000000000000000000000000000000909216919091177401000000000000000000000000000000000000000061ffff94851602177fffffffffffffffff0000ffffffffffffffffffffffffffffffffffffffffffff16760100000000000000000000000000000000000000000000939092169290920217905550565b73ffffffffffffffffffffffffffffffffffffffff82166109c8576040517f64a0ae9200000000000000000000000000000000000000000000000000000000815260006004820152602401610886565b60006109d5838333611155565b90508373ffffffffffffffffffffffffffffffffffffffff168173ffffffffffffffffffffffffffffffffffffffff1614610a63576040517f64283d7b00000000000000000000000000000000000000000000000000000000815273ffffffffffffffffffffffffffffffffffffffff80861660048301526024820184905282166044820152606401610886565b50505050565b600082815260076020526040902060010154610a8481611278565b610a638383611282565b6000610a9983610db5565b8210610af0576040517fa57d13dc00000000000000000000000000000000000000000000000000000000815273ffffffffffffffffffffffffffffffffffffffff8416600482015260248101839052604401610886565b5073ffffffffffffffffffffffffffffffffffffffff919091166000908152600860209081526040808320938352929052205490565b610b2e611382565b610b587ff0887ba65ee2024ea881d91b74c2450ef19e1557f03bed3ea9f16b037cbe2dc982610f5c565b50565b73ffffffffffffffffffffffffffffffffffffffff81163314610baa576040517f6697b23200000000000000000000000000000000000000000000000000000000815260040160405180910390fd5b610bb482826113d5565b505050565b610bb483838360405180602001604052806000815250610edd565b3360009081527febbd3a24feebba8cdf2e98db12048a013e10be52e067a537274a363ad327f1df602052604090205460ff16610c3e576040517fa4f39665000000000000000000000000000000000000000000000000000000008152336004820152602401610886565b6000918252600d60209081526040928390208251815492840151939094015173ffffffffffffffffffffffffffffffffffffffff9094167fffffffffffffffffffff00000000000000000000000000000000000000000000909216919091177401000000000000000000000000000000000000000061ffff93841602177fffffffffffffffff0000ffffffffffffffffffffffffffffffffffffffffffff167601000000000000000000000000000000000000000000009290931691909102919091179055565b6000610d10600a5490565b8210610d52576040517fa57d13dc0000000000000000000000000000000000000000000000000000000081526000600482015260248101839052604401610886565b600a8281548110610d6557610d6561272a565b90600052602060002001549050919050565b610d7f611382565b600c61081c82826127a9565b60008181526003602052604081205473ffffffffffffffffffffffffffffffffffffffff16610743565b600073ffffffffffffffffffffffffffffffffffffffff8216610e07576040517f89c62b6400000000000000000000000000000000000000000000000000000000815260006004820152602401610886565b5073ffffffffffffffffffffffffffffffffffffffff1660009081526004602052604090205490565b610e38611382565b610e426000611494565b565b60606002805461075890612670565b610e5b611382565b610b587ff0887ba65ee2024ea881d91b74c2450ef19e1557f03bed3ea9f16b037cbe2dc982610a69565b61081c338383611509565b73ffffffffffffffffffffffffffffffffffffffff811660009081527febbd3a24feebba8cdf2e98db12048a013e10be52e067a537274a363ad327f1df602052604081205460ff16610743565b610ee8848484610978565b610a6384848484611606565b6060610eff82611038565b506000610f0a6117fd565b90506000815111610f2a5760405180602001604052806000815250610f55565b80610f348461180c565b604051602001610f459291906128c3565b6040516020818303038152906040525b9392505050565b600082815260076020526040902060010154610f7781611278565b610a6383836113d5565b610f89611382565b73ffffffffffffffffffffffffffffffffffffffff8116610fd9576040517f1e4fbdf700000000000000000000000000000000000000000000000000000000815260006004820152602401610886565b610b5881611494565b60007fffffffff0000000000000000000000000000000000000000000000000000000082167f780e9d630000000000000000000000000000000000000000000000000000000014806107435750610743826118ca565b60008181526003602052604081205473ffffffffffffffffffffffffffffffffffffffff1680610743576040517f7e27328900000000000000000000000000000000000000000000000000000000815260048101849052602401610886565b610bb48383836001611920565b73ffffffffffffffffffffffffffffffffffffffff82166110f4576040517f64a0ae9200000000000000000000000000000000000000000000000000000000815260006004820152602401610886565b600061110283836000611155565b905073ffffffffffffffffffffffffffffffffffffffff811615610bb4576040517f73c6ac6e00000000000000000000000000000000000000000000000000000000815260006004820152602401610886565b600080611163858585611aeb565b905073ffffffffffffffffffffffffffffffffffffffff81166111cd576111c884600a80546000838152600b60205260408120829055600182018355919091527fc65a7bb8d6351c1cf70c95a316cc6a92839c986682d98bc35f958f4883f9d2a80155565b61120a565b8473ffffffffffffffffffffffffffffffffffffffff168173ffffffffffffffffffffffffffffffffffffffff161461120a5761120a8185611c68565b73ffffffffffffffffffffffffffffffffffffffff85166112335761122e84611d13565b611270565b8473ffffffffffffffffffffffffffffffffffffffff168173ffffffffffffffffffffffffffffffffffffffff1614611270576112708585611dc2565b949350505050565b610b588133611e1f565b600082815260076020908152604080832073ffffffffffffffffffffffffffffffffffffffff8516845290915281205460ff1661137a57600083815260076020908152604080832073ffffffffffffffffffffffffffffffffffffffff86168452909152902080547fffffffffffffffffffffffffffffffffffffffffffffffffffffffffffffff001660011790556113183390565b73ffffffffffffffffffffffffffffffffffffffff168273ffffffffffffffffffffffffffffffffffffffff16847f2f8788117e7eff1d82e926ec794901d17c78024a50270940304540a733656f0d60405160405180910390a4506001610743565b506000610743565b60005473ffffffffffffffffffffffffffffffffffffffff163314610e42576040517f118cdaa7000000000000000000000000000000000000000000000000000000008152336004820152602401610886565b600082815260076020908152604080832073ffffffffffffffffffffffffffffffffffffffff8516845290915281205460ff161561137a57600083815260076020908152604080832073ffffffffffffffffffffffffffffffffffffffff8616808552925280832080547fffffffffffffffffffffffffffffffffffffffffffffffffffffffffffffff0016905551339286917ff6391f5c32d9c69d2a47ea670b442974b53935d1edc7fd64eb21e047a839171b9190a4506001610743565b6000805473ffffffffffffffffffffffffffffffffffffffff8381167fffffffffffffffffffffffff0000000000000000000000000000000000000000831681178455604051919092169283917f8be0079c531659141344cd1fd0a4f28419497f9722a3daafe3b4186f6b6457e09190a35050565b73ffffffffffffffffffffffffffffffffffffffff821661156e576040517f5b08ba1800000000000000000000000000000000000000000000000000000000815273ffffffffffffffffffffffffffffffffffffffff83166004820152602401610886565b73ffffffffffffffffffffffffffffffffffffffff83811660008181526006602090815260408083209487168084529482529182902080547fffffffffffffffffffffffffffffffffffffffffffffffffffffffffffffff001686151590811790915591519182527f17307eab39ab6107e8899845ad3d59bd9653f200f220920489ca2b5937696c31910160405180910390a3505050565b73ffffffffffffffffffffffffffffffffffffffff83163b15610a63576040517f150b7a0200000000000000000000000000000000000000000000000000000000815273ffffffffffffffffffffffffffffffffffffffff84169063150b7a029061167b9033908890879087906004016128f2565b6020604051808303816000875af19250505080156116d4575060408051601f3d9081017fffffffffffffffffffffffffffffffffffffffffffffffffffffffffffffffe01682019092526116d19181019061293b565b60015b611763573d808015611702576040519150601f19603f3d011682016040523d82523d6000602084013e611707565b606091505b50805160000361175b576040517f64a0ae9200000000000000000000000000000000000000000000000000000000815273ffffffffffffffffffffffffffffffffffffffff85166004820152602401610886565b805181602001fd5b7fffffffff0000000000000000000000000000000000000000000000000000000081167f150b7a0200000000000000000000000000000000000000000000000000000000146117f6576040517f64a0ae9200000000000000000000000000000000000000000000000000000000815273ffffffffffffffffffffffffffffffffffffffff85166004820152602401610886565b5050505050565b6060600c805461075890612670565b6060600061181983611ea7565b600101905060008167ffffffffffffffff81111561183957611839612313565b6040519080825280601f01601f191660200182016040528015611863576020820181803683370190505b5090508181016020015b7fffffffffffffffffffffffffffffffffffffffffffffffffffffffffffffffff017f3031323334353637383961626364656600000000000000000000000000000000600a86061a8153600a850494508461186d57509392505050565b60007fffffffff0000000000000000000000000000000000000000000000000000000082167f7965db0b000000000000000000000000000000000000000000000000000000001480610743575061074382611f89565b8080611941575073ffffffffffffffffffffffffffffffffffffffff821615155b15611a9657600061195184611038565b905073ffffffffffffffffffffffffffffffffffffffff8316158015906119a457508273ffffffffffffffffffffffffffffffffffffffff168173ffffffffffffffffffffffffffffffffffffffff1614155b80156119e3575073ffffffffffffffffffffffffffffffffffffffff80821660009081526006602090815260408083209387168352929052205460ff16155b15611a32576040517fa9fbf51f00000000000000000000000000000000000000000000000000000000815273ffffffffffffffffffffffffffffffffffffffff84166004820152602401610886565b8115611a9457838573ffffffffffffffffffffffffffffffffffffffff168273ffffffffffffffffffffffffffffffffffffffff167f8c5be1e5ebec7d5bd14f71427d1e84f3dd0314c0f7b2291e5b200ac8c7c3b92560405160405180910390a45b505b5050600090815260056020526040902080547fffffffffffffffffffffffff00000000000000000000000000000000000000001673ffffffffffffffffffffffffffffffffffffffff92909216919091179055565b60008281526003602052604081205473ffffffffffffffffffffffffffffffffffffffff90811690831615611b2557611b2581848661206c565b73ffffffffffffffffffffffffffffffffffffffff811615611b9b57611b4f600085600080611920565b73ffffffffffffffffffffffffffffffffffffffff8116600090815260046020526040902080547fffffffffffffffffffffffffffffffffffffffffffffffffffffffffffffffff0190555b73ffffffffffffffffffffffffffffffffffffffff851615611be45773ffffffffffffffffffffffffffffffffffffffff85166000908152600460205260409020805460010190555b60008481526003602052604080822080547fffffffffffffffffffffffff00000000000000000000000000000000000000001673ffffffffffffffffffffffffffffffffffffffff89811691821790925591518793918516917fddf252ad1be2c89b69c2b068fc378daa952ba7f163c4a11628f55a4df523b3ef91a4949350505050565b6000611c7383610db5565b600083815260096020526040902054909150808214611cd35773ffffffffffffffffffffffffffffffffffffffff841660009081526008602090815260408083208584528252808320548484528184208190558352600990915290208190555b50600091825260096020908152604080842084905573ffffffffffffffffffffffffffffffffffffffff9094168352600881528383209183525290812055565b600a54600090611d2590600190612958565b6000838152600b6020526040812054600a8054939450909284908110611d4d57611d4d61272a565b9060005260206000200154905080600a8381548110611d6e57611d6e61272a565b6000918252602080832090910192909255828152600b9091526040808220849055858252812055600a805480611da657611da661296b565b6001900381819060005260206000200160009055905550505050565b60006001611dcf84610db5565b611dd99190612958565b73ffffffffffffffffffffffffffffffffffffffff9093166000908152600860209081526040808320868452825280832085905593825260099052919091209190915550565b600082815260076020908152604080832073ffffffffffffffffffffffffffffffffffffffff8516845290915290205460ff1661081c576040517fe2517d3f00000000000000000000000000000000000000000000000000000000815273ffffffffffffffffffffffffffffffffffffffff8216600482015260248101839052604401610886565b6000807a184f03e93ff9f4daa797ed6e38ed64bf6a1f0100000000000000008310611ef0577a184f03e93ff9f4daa797ed6e38ed64bf6a1f010000000000000000830492506040015b6d04ee2d6d415b85acef81000000008310611f1c576d04ee2d6d415b85acef8100000000830492506020015b662386f26fc100008310611f3a57662386f26fc10000830492506010015b6305f5e1008310611f52576305f5e100830492506008015b6127108310611f6657612710830492506004015b60648310611f78576064830492506002015b600a83106107435760010192915050565b60007fffffffff0000000000000000000000000000000000000000000000000000000082167f80ac58cd00000000000000000000000000000000000000000000000000000000148061201c57507fffffffff0000000000000000000000000000000000000000000000000000000082167f5b5e139f00000000000000000000000000000000000000000000000000000000145b8061074357507f01ffc9a7000000000000000000000000000000000000000000000000000000007fffffffff00000000000000000000000000000000000000000000000000000000831614610743565b61207783838361211c565b610bb45773ffffffffffffffffffffffffffffffffffffffff83166120cb576040517f7e27328900000000000000000000000000000000000000000000000000000000815260048101829052602401610886565b6040517f177e802f00000000000000000000000000000000000000000000000000000000815273ffffffffffffffffffffffffffffffffffffffff8316600482015260248101829052604401610886565b600073ffffffffffffffffffffffffffffffffffffffff83161580159061127057508273ffffffffffffffffffffffffffffffffffffffff168473ffffffffffffffffffffffffffffffffffffffff1614806121aa575073ffffffffffffffffffffffffffffffffffffffff80851660009081526006602090815260408083209387168352929052205460ff165b8061127057505060009081526005602052604090205473ffffffffffffffffffffffffffffffffffffffff908116911614919050565b7fffffffff0000000000000000000000000000000000000000000000000000000081168114610b5857600080fd5b60006020828403121561222057600080fd5b8135610f55816121e0565b60005b8381101561224657818101518382015260200161222e565b50506000910152565b6000815180845261226781602086016020860161222b565b601f017fffffffffffffffffffffffffffffffffffffffffffffffffffffffffffffffe0169290920160200192915050565b602081526000610f55602083018461224f565b6000602082840312156122be57600080fd5b5035919050565b73ffffffffffffffffffffffffffffffffffffffff81168114610b5857600080fd5b600080604083850312156122fa57600080fd5b8235612305816122c5565b946020939093013593505050565b7f4e487b7100000000000000000000000000000000000000000000000000000000600052604160045260246000fd5b803561ffff8116811461235457600080fd5b919050565b60006060828403121561236b57600080fd5b6040516060810181811067ffffffffffffffff8211171561238e5761238e612313565b604052905080823561239f816122c5565b81526123ad60208401612342565b60208201526123be60408401612342565b60408201525092915050565b600080608083850312156123dd57600080fd5b82356123e8816122c5565b91506123f78460208501612359565b90509250929050565b60008060006060848603121561241557600080fd5b8335612420816122c5565b92506020840135612430816122c5565b929592945050506040919091013590565b6000806040838503121561245457600080fd5b823591506020830135612466816122c5565b809150509250929050565b60006020828403121561248357600080fd5b8135610f55816122c5565b600080608083850312156124a157600080fd5b823591506123f78460208501612359565b600067ffffffffffffffff808411156124cd576124cd612313565b604051601f85017fffffffffffffffffffffffffffffffffffffffffffffffffffffffffffffffe0908116603f0116810190828211818310171561251357612513612313565b8160405280935085815286868601111561252c57600080fd5b858560208301376000602087830101525050509392505050565b60006020828403121561255857600080fd5b813567ffffffffffffffff81111561256f57600080fd5b8201601f8101841361258057600080fd5b611270848235602084016124b2565b600080604083850312156125a257600080fd5b82356125ad816122c5565b91506020830135801515811461246657600080fd5b600080600080608085870312156125d857600080fd5b84356125e3816122c5565b935060208501356125f3816122c5565b925060408501359150606085013567ffffffffffffffff81111561261657600080fd5b8501601f8101871361262757600080fd5b612636878235602084016124b2565b91505092959194509250565b6000806040838503121561265557600080fd5b8235612660816122c5565b91506020830135612466816122c5565b600181811c9082168061268457607f821691505b6020821081036126bd577f4e487b7100000000000000000000000000000000000000000000000000000000600052602260045260246000fd5b50919050565b7f4e487b7100000000000000000000000000000000000000000000000000000000600052601160045260246000fd5b60007fffffffffffffffffffffffffffffffffffffffffffffffffffffffffffffffff8203612723576127236126c3565b5060010190565b7f4e487b7100000000000000000000000000000000000000000000000000000000600052603260045260246000fd5b601f821115610bb4576000816000526020600020601f850160051c810160208610156127825750805b601f850160051c820191505b818110156127a15782815560010161278e565b505050505050565b815167ffffffffffffffff8111156127c3576127c3612313565b6127d7816127d18454612670565b84612759565b602080601f83116001811461282a57600084156127f45750858301515b7fffffffffffffffffffffffffffffffffffffffffffffffffffffffffffffffff600386901b1c1916600185901b1785556127a1565b6000858152602081207fffffffffffffffffffffffffffffffffffffffffffffffffffffffffffffffe08616915b8281101561287757888601518255948401946001909101908401612858565b50858210156128b357878501517fffffffffffffffffffffffffffffffffffffffffffffffffffffffffffffffff600388901b60f8161c191681555b5050505050600190811b01905550565b600083516128d581846020880161222b565b8351908301906128e981836020880161222b565b01949350505050565b600073ffffffffffffffffffffffffffffffffffffffff808716835280861660208401525083604083015260806060830152612931608083018461224f565b9695505050505050565b60006020828403121561294d57600080fd5b8151610f55816121e0565b81810381811115610743576107436126c3565b7f4e487b7100000000000000000000000000000000000000000000000000000000600052603160045260246000fdfea264697066735822122095c46bfbac1729e1d7f9b93bd241e3a30340f29b0455183560a6b72d5ad1c6ed64736f6c63430008160033","linkReferences":{}},"methodIdentifiers":{"DEFAULT_ADMIN_ROLE()":"a217fddf","MINTER_ROLE()":"d5391393","addMinter(address)":"983b2d56","approve(address,uint256)":"095ea7b3","balanceOf(address)":"70a08231","db(uint256)":"2b551c40","getApproved(uint256)":"081812fc","getRoleAdmin(bytes32)":"248a9ca3","grantRole(bytes32,address)":"2f2ff15d","hasRole(bytes32,address)":"91d14854","isApprovedForAll(address,address)":"e985e9c5","isMinter(address)":"aa271e1a","lastId()":"c1292cc3","metadata(uint256)":"e3684e39","mint(address,(uint160,uint16,uint16))":"0c8fde06","name()":"06fdde03","owner()":"8da5cb5b","ownerOf(uint256)":"6352211e","removeMinter(address)":"3092afd5","renounceOwnership()":"715018a6","renounceRole(bytes32,address)":"36568abe","revokeRole(bytes32,address)":"d547741f","safeTransferFrom(address,address,uint256)":"42842e0e","safeTransferFrom(address,address,uint256,bytes)":"b88d4fde","setApprovalForAll(address,bool)":"a22cb465","setBaseURI(string)":"55f804b3","setMetadata(uint256,(uint160,uint16,uint16))":"466d1a7c","supportsInterface(bytes4)":"01ffc9a7","symbol()":"95d89b41","tokenByIndex(uint256)":"4f6ccce7","tokenOfOwnerByIndex(address,uint256)":"2f745c59","tokenURI(uint256)":"c87b56dd","totalSupply()":"18160ddd","transferFrom(address,address,uint256)":"23b872dd","transferOwnership(address)":"f2fde38b"},"id":52}