{"abi":[{"type":"function","name":"DEFAULT_ADMIN_ROLE","inputs":[],"outputs":[{"name":"","type":"bytes32","internalType":"bytes32"}],"stateMutability":"view"},{"type":"function","name":"REVEALER_ROLE","inputs":[],"outputs":[{"name":"","type":"bytes32","internalType":"bytes32"}],"stateMutability":"view"},{"type":"function","name":"SECRET_SINGER_ROLE","inputs":[],"outputs":[{"name":"","type":"bytes32","internalType":"bytes32"}],"stateMutability":"view"},{"type":"function","name":"addRevealer","inputs":[{"name":"account","type":"address","internalType":"address"}],"outputs":[],"stateMutability":"nonpayable"},{"type":"function","name":"addSecretSigner","inputs":[{"name":"account","type":"address","internalType":"address"}],"outputs":[],"stateMutability":"nonpayable"},{"type":"function","name":"balanceOf","inputs":[{"name":"user","type":"address","internalType":"address"}],"outputs":[{"name":"","type":"uint256","internalType":"uint256"}],"stateMutability":"view"},{"type":"function","name":"balances","inputs":[{"name":"","type":"address","internalType":"address"}],"outputs":[{"name":"","type":"uint256","internalType":"uint256"}],"stateMutability":"view"},{"type":"function","name":"baseCollateral","inputs":[],"outputs":[{"name":"","type":"uint256","internalType":"uint256"}],"stateMutability":"view"},{"type":"function","name":"baseEarn","inputs":[],"outputs":[{"name":"","type":"uint256","internalType":"uint256"}],"stateMutability":"view"},{"type":"function","name":"basePrice","inputs":[],"outputs":[{"name":"","type":"uint256","internalType":"uint256"}],"stateMutability":"view"},{"type":"function","name":"buy","inputs":[],"outputs":[],"stateMutability":"nonpayable"},{"type":"function","name":"commit","inputs":[{"name":"commitLastBlock","type":"uint64","internalType":"uint64"},{"name":"secretHash","type":"bytes32","internalType":"bytes32"},{"name":"v","type":"uint8","internalType":"uint8"},{"name":"r","type":"bytes32","internalType":"bytes32"},{"name":"s","type":"bytes32","internalType":"bytes32"}],"outputs":[],"stateMutability":"nonpayable"},{"type":"function","name":"commits","inputs":[{"name":"","type":"bytes32","internalType":"bytes32"}],"outputs":[{"name":"amount","type":"uint256","internalType":"uint256"},{"name":"user","type":"address","internalType":"address"}],"stateMutability":"view"},{"type":"function","name":"deposit","inputs":[{"name":"user","type":"address","internalType":"address"},{"name":"amount","type":"uint256","internalType":"uint256"}],"outputs":[],"stateMutability":"nonpayable"},{"type":"function","name":"getRoleAdmin","inputs":[{"name":"role","type":"bytes32","internalType":"bytes32"}],"outputs":[{"name":"","type":"bytes32","internalType":"bytes32"}],"stateMutability":"view"},{"type":"function","name":"gold","inputs":[],"outputs":[{"name":"","type":"address","internalType":"contract IERC20"}],"stateMutability":"view"},{"type":"function","name":"grantRole","inputs":[{"name":"role","type":"bytes32","internalType":"bytes32"},{"name":"account","type":"address","internalType":"address"}],"outputs":[],"stateMutability":"nonpayable"},{"type":"function","name":"hasRole","inputs":[{"name":"role","type":"bytes32","internalType":"bytes32"},{"name":"account","type":"address","internalType":"address"}],"outputs":[{"name":"","type":"bool","internalType":"bool"}],"stateMutability":"view"},{"type":"function","name":"initialize","inputs":[{"name":"_owner","type":"address","internalType":"address"},{"name":"_nft","type":"address","internalType":"contract IProperty"},{"name":"_gold","type":"address","internalType":"contract IERC20"},{"name":"_map","type":"address","internalType":"contract IMap"},{"name":"_vault","type":"address","internalType":"address"}],"outputs":[],"stateMutability":"nonpayable"},{"type":"function","name":"isRevealer","inputs":[{"name":"account","type":"address","internalType":"address"}],"outputs":[{"name":"","type":"bool","internalType":"bool"}],"stateMutability":"view"},{"type":"function","name":"isSecretSigner","inputs":[{"name":"account","type":"address","internalType":"address"}],"outputs":[{"name":"","type":"bool","internalType":"bool"}],"stateMutability":"view"},{"type":"function","name":"map","inputs":[],"outputs":[{"name":"","type":"address","internalType":"contract IMap"}],"stateMutability":"view"},{"type":"function","name":"moveTo","inputs":[{"name":"user","type":"address","internalType":"address"},{"name":"r1","type":"uint8","internalType":"uint8"},{"name":"r2","type":"uint8","internalType":"uint8"}],"outputs":[],"stateMutability":"nonpayable"},{"type":"function","name":"nft","inputs":[],"outputs":[{"name":"","type":"address","internalType":"contract IProperty"}],"stateMutability":"view"},{"type":"function","name":"nftIds","inputs":[{"name":"","type":"uint16","internalType":"uint16"}],"outputs":[{"name":"","type":"uint256","internalType":"uint256"}],"stateMutability":"view"},{"type":"function","name":"nftOwner","inputs":[{"name":"pos","type":"uint16","internalType":"uint16"}],"outputs":[{"name":"","type":"address","internalType":"address"}],"stateMutability":"view"},{"type":"function","name":"owner","inputs":[],"outputs":[{"name":"","type":"address","internalType":"address"}],"stateMutability":"view"},{"type":"function","name":"paused","inputs":[],"outputs":[{"name":"","type":"bool","internalType":"bool"}],"stateMutability":"view"},{"type":"function","name":"removeRevealer","inputs":[{"name":"account","type":"address","internalType":"address"}],"outputs":[],"stateMutability":"nonpayable"},{"type":"function","name":"removeSecretSigner","inputs":[{"name":"account","type":"address","internalType":"address"}],"outputs":[],"stateMutability":"nonpayable"},{"type":"function","name":"renounceOwnership","inputs":[],"outputs":[],"stateMutability":"nonpayable"},{"type":"function","name":"renounceRole","inputs":[{"name":"role","type":"bytes32","internalType":"bytes32"},{"name":"callerConfirmation","type":"address","internalType":"address"}],"outputs":[],"stateMutability":"nonpayable"},{"type":"function","name":"reveal","inputs":[{"name":"secret","type":"uint256","internalType":"uint256"}],"outputs":[],"stateMutability":"nonpayable"},{"type":"function","name":"revokeRole","inputs":[{"name":"role","type":"bytes32","internalType":"bytes32"},{"name":"account","type":"address","internalType":"address"}],"outputs":[],"stateMutability":"nonpayable"},{"type":"function","name":"supportsInterface","inputs":[{"name":"interfaceId","type":"bytes4","internalType":"bytes4"}],"outputs":[{"name":"","type":"bool","internalType":"bool"}],"stateMutability":"view"},{"type":"function","name":"taxRate","inputs":[],"outputs":[{"name":"","type":"uint16","internalType":"uint16"}],"stateMutability":"view"},{"type":"function","name":"transferOwnership","inputs":[{"name":"newOwner","type":"address","internalType":"address"}],"outputs":[],"stateMutability":"nonpayable"},{"type":"function","name":"upgrade","inputs":[],"outputs":[],"stateMutability":"nonpayable"},{"type":"function","name":"userInfo","inputs":[{"name":"user","type":"address","internalType":"address"}],"outputs":[{"name":"","type":"tuple","internalType":"struct UserInfo","components":[{"name":"pos","type":"uint16","internalType":"uint16"},{"name":"steps","type":"uint64","internalType":"uint64"}]}],"stateMutability":"view"},{"type":"function","name":"users","inputs":[{"name":"","type":"address","internalType":"address"}],"outputs":[{"name":"pos","type":"uint16","internalType":"uint16"},{"name":"steps","type":"uint64","internalType":"uint64"}],"stateMutability":"view"},{"type":"function","name":"vault","inputs":[],"outputs":[{"name":"","type":"address","internalType":"address"}],"stateMutability":"view"},{"type":"function","name":"version","inputs":[],"outputs":[{"name":"","type":"uint16","internalType":"uint16"}],"stateMutability":"view"},{"type":"function","name":"withdraw","inputs":[{"name":"user","type":"address","internalType":"address"},{"name":"amount","type":"uint256","internalType":"uint256"}],"outputs":[],"stateMutability":"nonpayable"},{"type":"event","name":"Buy","inputs":[{"name":"user","type":"address","indexed":true,"internalType":"address"},{"name":"pos","type":"uint16","indexed":true,"internalType":"uint16"},{"name":"fee","type":"uint256","indexed":false,"internalType":"uint256"}],"anonymous":false},{"type":"event","name":"Commit","inputs":[{"name":"secretHash","type":"bytes32","indexed":false,"internalType":"bytes32"}],"anonymous":false},{"type":"event","name":"Deposit","inputs":[{"name":"user","type":"address","indexed":true,"internalType":"address"},{"name":"amount","type":"uint256","indexed":false,"internalType":"uint256"}],"anonymous":false},{"type":"event","name":"Initialized","inputs":[{"name":"version","type":"uint64","indexed":false,"internalType":"uint64"}],"anonymous":false},{"type":"event","name":"Move","inputs":[{"name":"user","type":"address","indexed":true,"internalType":"address"},{"name":"pos","type":"uint16","indexed":false,"internalType":"uint16"},{"name":"dice0","type":"uint8","indexed":false,"internalType":"uint8"},{"name":"dice1","type":"uint8","indexed":false,"internalType":"uint8"}],"anonymous":false},{"type":"event","name":"OwnershipTransferred","inputs":[{"name":"previousOwner","type":"address","indexed":true,"internalType":"address"},{"name":"newOwner","type":"address","indexed":true,"internalType":"address"}],"anonymous":false},{"type":"event","name":"Paused","inputs":[{"name":"account","type":"address","indexed":false,"internalType":"address"}],"anonymous":false},{"type":"event","name":"RoleAdminChanged","inputs":[{"name":"role","type":"bytes32","indexed":true,"internalType":"bytes32"},{"name":"previousAdminRole","type":"bytes32","indexed":true,"internalType":"bytes32"},{"name":"newAdminRole","type":"bytes32","indexed":true,"internalType":"bytes32"}],"anonymous":false},{"type":"event","name":"RoleGranted","inputs":[{"name":"role","type":"bytes32","indexed":true,"internalType":"bytes32"},{"name":"account","type":"address","indexed":true,"internalType":"address"},{"name":"sender","type":"address","indexed":true,"internalType":"address"}],"anonymous":false},{"type":"event","name":"RoleRevoked","inputs":[{"name":"role","type":"bytes32","indexed":true,"internalType":"bytes32"},{"name":"account","type":"address","indexed":true,"internalType":"address"},{"name":"sender","type":"address","indexed":true,"internalType":"address"}],"anonymous":false},{"type":"event","name":"Unpaused","inputs":[{"name":"account","type":"address","indexed":false,"internalType":"address"}],"anonymous":false},{"type":"event","name":"Upgrade","inputs":[{"name":"user","type":"address","indexed":true,"internalType":"address"},{"name":"pos","type":"uint16","indexed":true,"internalType":"uint16"},{"name":"fee","type":"uint256","indexed":false,"internalType":"uint256"}],"anonymous":false},{"type":"event","name":"Withdraw","inputs":[{"name":"user","type":"address","indexed":true,"internalType":"address"},{"name":"amount","type":"uint256","indexed":false,"internalType":"uint256"}],"anonymous":false},{"type":"error","name":"AccessControlBadConfirmation","inputs":[]},{"type":"error","name":"AccessControlUnauthorizedAccount","inputs":[{"name":"account","type":"address","internalType":"address"},{"name":"neededRole","type":"bytes32","internalType":"bytes32"}]},{"type":"error","name":"EnforcedPause","inputs":[]},{"type":"error","name":"ExpectedPause","inputs":[]},{"type":"error","name":"ExpiredBlockNumber","inputs":[{"name":"blocknum","type":"uint160","internalType":"uint160"}]},{"type":"error","name":"InsufficientBalance","inputs":[]},{"type":"error","name":"InvalidInitialization","inputs":[]},{"type":"error","name":"InvalidLand","inputs":[]},{"type":"error","name":"InvalidOwner","inputs":[]},{"type":"error","name":"NotInitializing","inputs":[]},{"type":"error","name":"OwnableInvalidOwner","inputs":[{"name":"owner","type":"address","internalType":"address"}]},{"type":"error","name":"OwnableUnauthorizedAccount","inputs":[{"name":"account","type":"address","internalType":"address"}]},{"type":"error","name":"UnauthorizedRevealer","inputs":[{"name":"account","type":"address","internalType":"address"}]},{"type":"error","name":"UnauthorizedSecretSigner","inputs":[]}],"bytecode":{"object":"0x6080604052600060078190556008819055600955600a805461ffff1916905534801561002a57600080fd5b50612ce98061003a6000396000f3fe608060405234801561001057600080fd5b50600436106102e95760003560e01c8063771a3a1d11610191578063c7581184116100e3578063dd26820d11610097578063fb8c4d9111610071578063fb8c4d9114610852578063fbec6f2114610865578063fbfa77cf1461088557600080fd5b8063dd26820d14610819578063f2fde38b1461082c578063f3fef3a31461083f57600080fd5b8063d547741f116100c8578063d547741f146107d7578063d55ec697146107ea578063db7efd78146107f257600080fd5b8063c7581184146107ae578063c7876ea4146107ce57600080fd5b8063a6f2ae3a11610145578063b324ceb01161011f578063b324ceb014610775578063b54fee0614610788578063c2ca0ac51461079b57600080fd5b8063a6f2ae3a146106ed578063a87430ba146106f5578063ab9ea1f81461074e57600080fd5b806391d148541161017657806391d14854146106775780639b5ddf09146106dc578063a217fddf146106e557600080fd5b8063771a3a1d1461062c5780638da5cb5b1461063a57600080fd5b8063307344e51161024a57806354fd4d50116101fe57806361151dab116101d857806361151dab146105ce57806370a08231146105ee578063715018a61461062457600080fd5b806354fd4d5014610576578063565a3c23146105915780635c975abb146105a457600080fd5b8063478857811161022f57806347885781146104d657806347ccca021461053d57806347e7ef241461056357600080fd5b8063307344e5146104b057806336568abe146104c357600080fd5b8063248a9ca3116102a15780632bc4a26b116102865780632bc4a26b146104815780632d87496d1461048a5780632f2ff15d1461049d57600080fd5b8063248a9ca31461041157806327e235e31461046157600080fd5b80630ffa248d116102d25780630ffa248d1461034e5780631459457a146103635780631959a0021461037657600080fd5b806301ffc9a7146102ee5780630e6cca9114610316575b600080fd5b6103016102fc3660046126e3565b6108ab565b60405190151581526020015b60405180910390f35b610329610324366004612735565b610944565b60405173ffffffffffffffffffffffffffffffffffffffff909116815260200161030d565b61036161035c366004612774565b61094f565b005b610361610371366004612791565b610984565b6103e8610384366004612774565b60408051808201909152600080825260208201525073ffffffffffffffffffffffffffffffffffffffff1660009081526005602090815260409182902082518084019093525461ffff8116835262010000900467ffffffffffffffff169082015290565b60408051825161ffff16815260209283015167ffffffffffffffff16928101929092520161030d565b61045361041f366004612802565b60009081527f02dd7bc7dec4dceedda775e58dd541e08a116c6c53815c0bd028192f7b626800602052604090206001015490565b60405190815260200161030d565b61045361046f366004612774565b60036020526000908152604090205481565b61045360095481565b610301610498366004612774565b610b0c565b6103616104ab36600461281b565b610b59565b6103616104be36600461285a565b610ba3565b6103616104d136600461281b565b610bbb565b6105136104e4366004612802565b6004602052600090815260409020805460019091015473ffffffffffffffffffffffffffffffffffffffff1682565b6040805192835273ffffffffffffffffffffffffffffffffffffffff90911660208301520161030d565b6000546103299062010000900473ffffffffffffffffffffffffffffffffffffffff1681565b6103616105713660046128a5565b610c14565b60005461ffff165b60405161ffff909116815260200161030d565b61036161059f3660046128d1565b610d40565b7fcd5ed15c6e187e77e9aee88184c21f4f2182ab5827cb3b7e07fbedcd63f033005460ff16610301565b6104536105dc366004612735565b60066020526000908152604090205481565b6104536105fc366004612774565b73ffffffffffffffffffffffffffffffffffffffff1660009081526003602052604090205490565b610361610e57565b600a5461057e9061ffff1681565b7f9016d09d72d40fdae2fd8ceac6b6234c7706214fd39c1cd1e609a0528c1993005473ffffffffffffffffffffffffffffffffffffffff16610329565b61030161068536600461281b565b60009182527f02dd7bc7dec4dceedda775e58dd541e08a116c6c53815c0bd028192f7b6268006020908152604080842073ffffffffffffffffffffffffffffffffffffffff93909316845291905290205460ff1690565b61045360075481565b610453600081565b610361610e6b565b61072b610703366004612774565b60056020526000908152604090205461ffff81169062010000900467ffffffffffffffff1682565b6040805161ffff909316835267ffffffffffffffff90911660208301520161030d565b6104537fd130b329c3acfcc272e02f5991aede09f505718c3c17622ce38546a48dc9664f81565b610301610783366004612774565b611183565b610361610796366004612774565b6111d0565b6103616107a9366004612802565b611202565b6002546103299073ffffffffffffffffffffffffffffffffffffffff1681565b61045360085481565b6103616107e536600461281b565b61139d565b6103616113e1565b6104537fe603198a14967eaeab0670eea37afae265668f00c2d5c89659a958d4043214ae81565b610361610827366004612774565b6117ff565b61036161083a366004612774565b611831565b61036161084d3660046128a5565b611892565b610361610860366004612774565b6119a4565b6001546103299073ffffffffffffffffffffffffffffffffffffffff1681565b600a546103299062010000900473ffffffffffffffffffffffffffffffffffffffff1681565b60007fffffffff0000000000000000000000000000000000000000000000000000000082167f7965db0b00000000000000000000000000000000000000000000000000000000148061093e57507f01ffc9a7000000000000000000000000000000000000000000000000000000007fffffffff000000000000000000000000000000000000000000000000000000008316145b92915050565b600061093e826119d6565b610957611a99565b6109817fe603198a14967eaeab0670eea37afae265668f00c2d5c89659a958d4043214ae8261139d565b50565b7ff0c57e16840df040f15088dc2f81fe391c3923bec73e23a9662efc9c229c6a00805468010000000000000000810460ff16159067ffffffffffffffff166000811580156109cf5750825b905060008267ffffffffffffffff1660011480156109ec5750303b155b9050811580156109fa575080155b15610a31576040517ff92ee8a900000000000000000000000000000000000000000000000000000000815260040160405180910390fd5b84547fffffffffffffffffffffffffffffffffffffffffffffffff00000000000000001660011785558315610a925784547fffffffffffffffffffffffffffffffffffffffffffffff00ffffffffffffffff16680100000000000000001785555b610a9f8a8a8a8a8a611b27565b8315610b005784547fffffffffffffffffffffffffffffffffffffffffffffff00ffffffffffffffff168555604051600181527fc7f505b2f371ae2175ee4913f4499e1f2633a7b5936321eed1cdaeb6115181d29060200160405180910390a15b50505050505050505050565b73ffffffffffffffffffffffffffffffffffffffff811660009081527f37bfaeba0847431c229a1fc3c022a6ed60dcfce40da11d60ec6157037b50a10b602052604081205460ff1661093e565b60008281527f02dd7bc7dec4dceedda775e58dd541e08a116c6c53815c0bd028192f7b6268006020526040902060010154610b9381611b43565b610b9d8383611b4d565b50505050565b610bab611a99565b610bb6838383611c75565b505050565b73ffffffffffffffffffffffffffffffffffffffff81163314610c0a576040517f6697b23200000000000000000000000000000000000000000000000000000000815260040160405180910390fd5b610bb682826120db565b6001546040517f23b872dd0000000000000000000000000000000000000000000000000000000081523360048201523060248201526044810183905273ffffffffffffffffffffffffffffffffffffffff909116906323b872dd906064016020604051808303816000875af1158015610c91573d6000803e3d6000fd5b505050506040513d601f19601f82011682018060405250810190610cb59190612930565b5073ffffffffffffffffffffffffffffffffffffffff821660009081526003602052604081208054839290610ceb908490612981565b909155505060405181815273ffffffffffffffffffffffffffffffffffffffff8316907fe1fffcc4923d04b559f4d29a8bfc6cda04eb5b0d3c460751c2402c5c5cc9109c906020015b60405180910390a25050565b8484848484610d5285858585856121b9565b610d88576040517f26fd5c1400000000000000000000000000000000000000000000000000000000815260040160405180910390fd5b610d90612381565b600754336000908152600360205260409020541015610ddb576040517ff4d678b800000000000000000000000000000000000000000000000000000000815260040160405180910390fd5b5050604080518082018252600754815233602080830191825260009a8b5260049052919098209751885551600190970180547fffffffffffffffffffffffff00000000000000000000000000000000000000001673ffffffffffffffffffffffffffffffffffffffff9098169790971790965550505050505050565b610e5f611a99565b610e6960006123dd565b565b610e73612381565b33600081815260056020908152604080832081518083018352905461ffff81168083526201000090910467ffffffffffffffff169382019390935260025491517fb3fd15a00000000000000000000000000000000000000000000000000000000081526004810193909352929173ffffffffffffffffffffffffffffffffffffffff9091169063b3fd15a090602401608060405180830381865afa158015610f1f573d6000803e3d6000fd5b505050506040513d601f19601f82011682018060405250810190610f439190612994565b805190915060ff1615610f82576040517f3179c84800000000000000000000000000000000000000000000000000000000815260040160405180910390fd5b6000600854826020015161ffff16610f9a9190612a40565b73ffffffffffffffffffffffffffffffffffffffff8516600090815260036020526040902054909150811115610ffc576040517ff4d678b800000000000000000000000000000000000000000000000000000000815260040160405180910390fd5b73ffffffffffffffffffffffffffffffffffffffff841660009081526003602052604081208054839290611031908490612a57565b9091555050600a5462010000900473ffffffffffffffffffffffffffffffffffffffff1660009081526003602052604081208054839290611073908490612981565b90915550506040805160608101825273ffffffffffffffffffffffffffffffffffffffff43811682526001602083015260008284018190525492517f0c8fde0600000000000000000000000000000000000000000000000000000000815291926201000090041690630c8fde06906110f19088908590600401612a6a565b600060405180830381600087803b15801561110b57600080fd5b505af115801561111f573d6000803e3d6000fd5b50505050836000015161ffff168573ffffffffffffffffffffffffffffffffffffffff167f9e7f3ac9856a954ae44f45fa55acf9e7fa0148c4b1190e209130b7f17e55d0058460405161117491815260200190565b60405180910390a35050505050565b73ffffffffffffffffffffffffffffffffffffffff811660009081527fefe785026b970e4fd351f3aec10476863032cf81a604a3bd1ae7fc84c856095a602052604081205460ff1661093e565b6111d8611a99565b6109817fd130b329c3acfcc272e02f5991aede09f505718c3c17622ce38546a48dc9664f82610b59565b3360009081527fefe785026b970e4fd351f3aec10476863032cf81a604a3bd1ae7fc84c856095a602052604090205460ff16611271576040517f8225eba30000000000000000000000000000000000000000000000000000000081523360048201526024015b60405180910390fd5b611279612381565b60008160405160200161128e91815260200190565b604051602081830303815290604052805190602001209050600082436040516020016112c4929190918252602082015260400190565b604080517fffffffffffffffffffffffffffffffffffffffffffffffffffffffffffffffe0818403018152919052805160209091012090506fffffffffffffffffffffffffffffffff8116608082901c6000611321600684612af7565b61132c906001612981565b9050600061133b600684612af7565b611346906001612981565b6000878152600460209081526040918290208251808401909352805483526001015473ffffffffffffffffffffffffffffffffffffffff1690820181905291925090611393908484611c75565b5050505050505050565b60008281527f02dd7bc7dec4dceedda775e58dd541e08a116c6c53815c0bd028192f7b62680060205260409020600101546113d781611b43565b610b9d83836120db565b6113e9612381565b33600081815260056020908152604080832081518083018352905461ffff81168083526201000090910467ffffffffffffffff169382019390935260025491517fb3fd15a00000000000000000000000000000000000000000000000000000000081526004810193909352929173ffffffffffffffffffffffffffffffffffffffff9091169063b3fd15a090602401608060405180830381865afa158015611495573d6000803e3d6000fd5b505050506040513d601f19601f820116820180604052508101906114b99190612994565b905060006114ca83600001516119d6565b90508373ffffffffffffffffffffffffffffffffffffffff168173ffffffffffffffffffffffffffffffffffffffff1614611531576040517f49e27cff00000000000000000000000000000000000000000000000000000000815260040160405180910390fd5b825161ffff1660009081526006602052604080822054825491517fe3684e390000000000000000000000000000000000000000000000000000000081526004810182905290929162010000900473ffffffffffffffffffffffffffffffffffffffff169063e3684e3990602401606060405180830381865afa1580156115bb573d6000803e3d6000fd5b505050506040513d601f19601f820116820180604052508101906115df9190612b0b565b905060006008548560200151836020015160016115fc9190612ba4565b6116069190612bbf565b61ffff166116149190612a40565b73ffffffffffffffffffffffffffffffffffffffff8816600090815260036020526040902054909150811115611676576040517ff4d678b800000000000000000000000000000000000000000000000000000000815260040160405180910390fd5b73ffffffffffffffffffffffffffffffffffffffff8716600090815260036020526040812080548392906116ab908490612a57565b9091555050600a5462010000900473ffffffffffffffffffffffffffffffffffffffff16600090815260036020526040812080548392906116ed908490612981565b925050819055506001826020018181516117079190612ba4565b61ffff169052506000546040517f466d1a7c0000000000000000000000000000000000000000000000000000000081526201000090910473ffffffffffffffffffffffffffffffffffffffff169063466d1a7c9061176b9086908690600401612be5565b600060405180830381600087803b15801561178557600080fd5b505af1158015611799573d6000803e3d6000fd5b50505050856000015161ffff168773ffffffffffffffffffffffffffffffffffffffff167ff7b6a0920cebf144546ea9f759ac7df8f0c6f7d4b3f6af4fb6e25b03ade1af72836040516117ee91815260200190565b60405180910390a350505050505050565b611807611a99565b6109817fd130b329c3acfcc272e02f5991aede09f505718c3c17622ce38546a48dc9664f8261139d565b611839611a99565b73ffffffffffffffffffffffffffffffffffffffff8116611889576040517f1e4fbdf700000000000000000000000000000000000000000000000000000000815260006004820152602401611268565b610981816123dd565b61189a612381565b33600090815260036020526040812080548392906118b9908490612a57565b90915550506001546040517fa9059cbb00000000000000000000000000000000000000000000000000000000815273ffffffffffffffffffffffffffffffffffffffff8481166004830152602482018490529091169063a9059cbb906044016020604051808303816000875af1158015611937573d6000803e3d6000fd5b505050506040513d601f19601f8201168201806040525081019061195b9190612930565b508173ffffffffffffffffffffffffffffffffffffffff167f884edad9ce6fa2440d8a54cc123490eb96d2768479d49ff9c7366125a942436482604051610d3491815260200190565b6119ac611a99565b6109817fe603198a14967eaeab0670eea37afae265668f00c2d5c89659a958d4043214ae82610b59565b61ffff81166000908152600660205260408120548082036119fa5750600092915050565b6000546040517f6352211e000000000000000000000000000000000000000000000000000000008152600481018390526201000090910473ffffffffffffffffffffffffffffffffffffffff1690636352211e90602401602060405180830381865afa158015611a6e573d6000803e3d6000fd5b505050506040513d601f19601f82011682018060405250810190611a929190612c2d565b9392505050565b33611ad87f9016d09d72d40fdae2fd8ceac6b6234c7706214fd39c1cd1e609a0528c1993005473ffffffffffffffffffffffffffffffffffffffff1690565b73ffffffffffffffffffffffffffffffffffffffff1614610e69576040517f118cdaa7000000000000000000000000000000000000000000000000000000008152336004820152602401611268565b611b2f612473565b611b3c85858585856124da565b5050505050565b61098181336125df565b60008281527f02dd7bc7dec4dceedda775e58dd541e08a116c6c53815c0bd028192f7b6268006020818152604080842073ffffffffffffffffffffffffffffffffffffffff8616855290915282205460ff16611c645760008481526020828152604080832073ffffffffffffffffffffffffffffffffffffffff87168452909152902080547fffffffffffffffffffffffffffffffffffffffffffffffffffffffffffffff00166001179055611c003390565b73ffffffffffffffffffffffffffffffffffffffff168373ffffffffffffffffffffffffffffffffffffffff16857f2f8788117e7eff1d82e926ec794901d17c78024a50270940304540a733656f0d60405160405180910390a4600191505061093e565b600091505061093e565b5092915050565b73ffffffffffffffffffffffffffffffffffffffff8316600090815260056020526040812090611ca58385612c4a565b825460ff91909116915060009061ffff16611cc05781611cd1565b8254611cd190839061ffff16612ba4565b905061271061ffff821610611cef57611cec61271082612c63565b90505b82547fffffffffffffffffffffffffffffffffffffffffffffffffffffffffffff00001661ffff82811691909117808555908316908490600290611d4490849062010000900467ffffffffffffffff16612c7e565b92506101000a81548167ffffffffffffffff021916908367ffffffffffffffff1602179055508573ffffffffffffffffffffffffffffffffffffffff167f22957329b3d8fba115462b6fce149b4c1babafc7c09aee00a48713b4ebc26aa4828787604051611dce9392919061ffff93909316835260ff918216602084015216604082015260600190565b60405180910390a26002546040517fb3fd15a000000000000000000000000000000000000000000000000000000000815261ffff8316600482015260009173ffffffffffffffffffffffffffffffffffffffff169063b3fd15a090602401608060405180830381865afa158015611e49573d6000803e3d6000fd5b505050506040513d601f19601f82011682018060405250810190611e6d9190612994565b604081015190915061ffff1615611f19576000600854826040015161ffff16611e969190612a40565b73ffffffffffffffffffffffffffffffffffffffff8916600090815260036020526040812080549293508392909190611ed0908490612981565b9091555050600a5462010000900473ffffffffffffffffffffffffffffffffffffffff1660009081526003602052604081208054839290611f12908490612a57565b9091555050505b606081015161ffff16156120d2576000600854826060015161ffff16611f3f9190612a40565b90506000611f4c846119d6565b90508873ffffffffffffffffffffffffffffffffffffffff168173ffffffffffffffffffffffffffffffffffffffff16146120cf5773ffffffffffffffffffffffffffffffffffffffff891660009081526003602052604081208054849290611fb6908490612a57565b909155505073ffffffffffffffffffffffffffffffffffffffff81161561208c57600a5460009061271090611fef9061ffff1685612a40565b611ff99190612c9f565b600a5462010000900473ffffffffffffffffffffffffffffffffffffffff1660009081526003602052604081208054929350839290919061203b908490612981565b9091555061204b90508184612a57565b73ffffffffffffffffffffffffffffffffffffffff831660009081526003602052604081208054909190612080908490612981565b909155506120cf915050565b600a5462010000900473ffffffffffffffffffffffffffffffffffffffff16600090815260036020526040812080548492906120c9908490612981565b90915550505b50505b50505050505050565b60008281527f02dd7bc7dec4dceedda775e58dd541e08a116c6c53815c0bd028192f7b6268006020818152604080842073ffffffffffffffffffffffffffffffffffffffff8616855290915282205460ff1615611c645760008481526020828152604080832073ffffffffffffffffffffffffffffffffffffffff8716808552925280832080547fffffffffffffffffffffffffffffffffffffffffffffffffffffffffffffff0016905551339287917ff6391f5c32d9c69d2a47ea670b442974b53935d1edc7fd64eb21e047a839171b9190a4600191505061093e565b60008567ffffffffffffffff1643111561220b576040517f48a2f7f400000000000000000000000000000000000000000000000000000000815267ffffffffffffffff43166004820152602401611268565b6040517fffffffffffffffff00000000000000000000000000000000000000000000000060c088901b16602082015260288101869052600090604801604080517fffffffffffffffffffffffffffffffffffffffffffffffffffffffffffffffe08184030181528282528051602091820120600080855291840180845281905260ff89169284019290925260608301879052608083018690529092509060019060a0016020604051602081039080840390855afa1580156122d0573d6000803e3d6000fd5b5050604080517fffffffffffffffffffffffffffffffffffffffffffffffffffffffffffffffe081015173ffffffffffffffffffffffffffffffffffffffff811660009081527f37bfaeba0847431c229a1fc3c022a6ed60dcfce40da11d60ec6157037b50a10b6020908152939020548b835260ff16965093507f9e8a51bb6b34b9d5d18c14fd753ee3bf44e2256512665a4577281ffcc91943ff92500160405180910390a1505095945050505050565b7fcd5ed15c6e187e77e9aee88184c21f4f2182ab5827cb3b7e07fbedcd63f033005460ff1615610e69576040517fd93c066500000000000000000000000000000000000000000000000000000000815260040160405180910390fd5b7f9016d09d72d40fdae2fd8ceac6b6234c7706214fd39c1cd1e609a0528c19930080547fffffffffffffffffffffffff0000000000000000000000000000000000000000811673ffffffffffffffffffffffffffffffffffffffff848116918217845560405192169182907f8be0079c531659141344cd1fd0a4f28419497f9722a3daafe3b4186f6b6457e090600090a3505050565b7ff0c57e16840df040f15088dc2f81fe391c3923bec73e23a9662efc9c229c6a005468010000000000000000900460ff16610e69576040517fd7e6bcf800000000000000000000000000000000000000000000000000000000815260040160405180910390fd5b6124e2612473565b6124eb8561268a565b6124f3612692565b6000805473ffffffffffffffffffffffffffffffffffffffff958616620100009081027fffffffffffffffffffff0000000000000000000000000000000000000000000092831617600190811790935582549587167fffffffffffffffffffffffff000000000000000000000000000000000000000096871617909255600280549487169490951693909317909355600a8054683635c9adc5dea00000600755670de0b6b3a7640000600855662386f26fc10000600955919094169092027fffffffffffffffffffffffffffffffffffffffffffffffffffffffffffff00001691161761012c17905550565b60008281527f02dd7bc7dec4dceedda775e58dd541e08a116c6c53815c0bd028192f7b6268006020908152604080832073ffffffffffffffffffffffffffffffffffffffff8516845290915290205460ff16612686576040517fe2517d3f00000000000000000000000000000000000000000000000000000000815273ffffffffffffffffffffffffffffffffffffffff8216600482015260248101839052604401611268565b5050565b611839612473565b61269a612473565b7fcd5ed15c6e187e77e9aee88184c21f4f2182ab5827cb3b7e07fbedcd63f0330080547fffffffffffffffffffffffffffffffffffffffffffffffffffffffffffffff00169055565b6000602082840312156126f557600080fd5b81357fffffffff0000000000000000000000000000000000000000000000000000000081168114611a9257600080fd5b61ffff8116811461098157600080fd5b60006020828403121561274757600080fd5b8135611a9281612725565b73ffffffffffffffffffffffffffffffffffffffff8116811461098157600080fd5b60006020828403121561278657600080fd5b8135611a9281612752565b600080600080600060a086880312156127a957600080fd5b85356127b481612752565b945060208601356127c481612752565b935060408601356127d481612752565b925060608601356127e481612752565b915060808601356127f481612752565b809150509295509295909350565b60006020828403121561281457600080fd5b5035919050565b6000806040838503121561282e57600080fd5b82359150602083013561284081612752565b809150509250929050565b60ff8116811461098157600080fd5b60008060006060848603121561286f57600080fd5b833561287a81612752565b9250602084013561288a8161284b565b9150604084013561289a8161284b565b809150509250925092565b600080604083850312156128b857600080fd5b82356128c381612752565b946020939093013593505050565b600080600080600060a086880312156128e957600080fd5b853567ffffffffffffffff8116811461290157600080fd5b94506020860135935060408601356129188161284b565b94979396509394606081013594506080013592915050565b60006020828403121561294257600080fd5b81518015158114611a9257600080fd5b7f4e487b7100000000000000000000000000000000000000000000000000000000600052601160045260246000fd5b8082018082111561093e5761093e612952565b6000608082840312156129a657600080fd5b6040516080810181811067ffffffffffffffff821117156129f0577f4e487b7100000000000000000000000000000000000000000000000000000000600052604160045260246000fd5b60405282516129fe8161284b565b81526020830151612a0e81612725565b60208201526040830151612a2181612725565b60408201526060830151612a3481612725565b60608201529392505050565b808202811582820484141761093e5761093e612952565b8181038181111561093e5761093e612952565b73ffffffffffffffffffffffffffffffffffffffff8316815260808101611a926020830184805173ffffffffffffffffffffffffffffffffffffffff16825260208082015161ffff9081169184019190915260409182015116910152565b7f4e487b7100000000000000000000000000000000000000000000000000000000600052601260045260246000fd5b600082612b0657612b06612ac8565b500690565b600060608284031215612b1d57600080fd5b6040516060810181811067ffffffffffffffff82111715612b67577f4e487b7100000000000000000000000000000000000000000000000000000000600052604160045260246000fd5b6040528251612b7581612752565b81526020830151612b8581612725565b60208201526040830151612b9881612725565b60408201529392505050565b61ffff818116838216019080821115611c6e57611c6e612952565b61ffff818116838216028082169190828114612bdd57612bdd612952565b505092915050565b82815260808101611a926020830184805173ffffffffffffffffffffffffffffffffffffffff16825260208082015161ffff9081169184019190915260409182015116910152565b600060208284031215612c3f57600080fd5b8151611a9281612752565b60ff818116838216019081111561093e5761093e612952565b61ffff828116828216039080821115611c6e57611c6e612952565b67ffffffffffffffff818116838216019080821115611c6e57611c6e612952565b600082612cae57612cae612ac8565b50049056fea26469706673582212206b7ca0bdbd060d2fc7d6daef11d34b4354ca434178a76f9b466116dfb986429564736f6c63430008160033","linkReferences":{}},"methodIdentifiers":{"DEFAULT_ADMIN_ROLE()":"a217fddf","REVEALER_ROLE()":"ab9ea1f8","SECRET_SINGER_ROLE()":"db7efd78","addRevealer(address)":"b54fee06","addSecretSigner(address)":"fb8c4d91","balanceOf(address)":"70a08231","balances(address)":"27e235e3","baseCollateral()":"9b5ddf09","baseEarn()":"2bc4a26b","basePrice()":"c7876ea4","buy()":"a6f2ae3a","commit(uint64,bytes32,uint8,bytes32,bytes32)":"565a3c23","commits(bytes32)":"47885781","deposit(address,uint256)":"47e7ef24","getRoleAdmin(bytes32)":"248a9ca3","gold()":"fbec6f21","grantRole(bytes32,address)":"2f2ff15d","hasRole(bytes32,address)":"91d14854","initialize(address,address,address,address,address)":"1459457a","isRevealer(address)":"b324ceb0","isSecretSigner(address)":"2d87496d","map()":"c7581184","moveTo(address,uint8,uint8)":"307344e5","nft()":"47ccca02","nftIds(uint16)":"61151dab","nftOwner(uint16)":"0e6cca91","owner()":"8da5cb5b","paused()":"5c975abb","removeRevealer(address)":"dd26820d","removeSecretSigner(address)":"0ffa248d","renounceOwnership()":"715018a6","renounceRole(bytes32,address)":"36568abe","reveal(uint256)":"c2ca0ac5","revokeRole(bytes32,address)":"d547741f","supportsInterface(bytes4)":"01ffc9a7","taxRate()":"771a3a1d","transferOwnership(address)":"f2fde38b","upgrade()":"d55ec697","userInfo(address)":"1959a002","users(address)":"a87430ba","vault()":"fbfa77cf","version()":"54fd4d50","withdraw(address,uint256)":"f3fef3a3"},"id":63}